{
  "contractName": "SimpleStorage",
  "abi": [
    {
      "constant": true,
      "inputs": [
        {
          "name": "",
          "type": "uint256"
        }
      ],
      "name": "patient",
      "outputs": [
        {
          "name": "prod_id",
          "type": "uint256"
        },
        {
          "name": "prod_status",
          "type": "string"
        },
        {
          "name": "authority",
          "type": "string"
        },
        {
          "name": "timestamp",
          "type": "string"
        }
      ],
      "payable": false,
      "stateMutability": "view",
      "type": "function",
      "signature": "0x74607d91"
    },
    {
      "constant": false,
      "inputs": [
        {
          "name": "_prod_id",
          "type": "uint256"
        },
        {
          "name": "_prod_status",
          "type": "string"
        },
        {
          "name": "_authority",
          "type": "string"
        },
        {
          "name": "_timestamp",
          "type": "string"
        }
      ],
      "name": "addReport",
      "outputs": [
        {
          "name": "",
          "type": "uint256"
        }
      ],
      "payable": false,
      "stateMutability": "nonpayable",
      "type": "function",
      "signature": "0xc1134fec"
    },
    {
      "constant": true,
      "inputs": [],
      "name": "getPatCount",
      "outputs": [
        {
          "name": "",
          "type": "uint256"
        }
      ],
      "payable": false,
      "stateMutability": "view",
      "type": "function",
      "signature": "0x2511e3c0"
    },
    {
      "constant": true,
      "inputs": [
        {
          "name": "index",
          "type": "uint256"
        }
      ],
      "name": "getProd",
      "outputs": [
        {
          "name": "",
          "type": "uint256"
        },
        {
          "name": "",
          "type": "string"
        },
        {
          "name": "",
          "type": "string"
        },
        {
          "name": "",
          "type": "string"
        }
      ],
      "payable": false,
      "stateMutability": "view",
      "type": "function",
      "signature": "0xfc99cc3b"
    }
  ],
  "bytecode": "0x608060405234801561001057600080fd5b50610cf6806100206000396000f3fe608060405260043610610062576000357c0100000000000000000000000000000000000000000000000000000000900463ffffffff1680632511e3c01461006757806374607d9114610092578063c1134fec14610225578063fc99cc3b14610439575b600080fd5b34801561007357600080fd5b5061007c6105cc565b6040518082815260200191505060405180910390f35b34801561009e57600080fd5b506100cb600480360360208110156100b557600080fd5b81019080803590602001909291905050506105d8565b60405180858152602001806020018060200180602001848103845287818151815260200191508051906020019080838360005b838110156101195780820151818401526020810190506100fe565b50505050905090810190601f1680156101465780820380516001836020036101000a031916815260200191505b50848103835286818151815260200191508051906020019080838360005b8381101561017f578082015181840152602081019050610164565b50505050905090810190601f1680156101ac5780820380516001836020036101000a031916815260200191505b50848103825285818151815260200191508051906020019080838360005b838110156101e55780820151818401526020810190506101ca565b50505050905090810190601f1680156102125780820380516001836020036101000a031916815260200191505b5097505050505050505060405180910390f35b34801561023157600080fd5b506104236004803603608081101561024857600080fd5b81019080803590602001909291908035906020019064010000000081111561026f57600080fd5b82018360208201111561028157600080fd5b803590602001918460018302840111640100000000831117156102a357600080fd5b91908080601f016020809104026020016040519081016040528093929190818152602001838380828437600081840152601f19601f8201169050808301925050505050505091929192908035906020019064010000000081111561030657600080fd5b82018360208201111561031857600080fd5b8035906020019184600183028401116401000000008311171561033a57600080fd5b91908080601f016020809104026020016040519081016040528093929190818152602001838380828437600081840152601f19601f8201169050808301925050505050505091929192908035906020019064010000000081111561039d57600080fd5b8201836020820111156103af57600080fd5b803590602001918460018302840111640100000000831117156103d157600080fd5b91908080601f016020809104026020016040519081016040528093929190818152602001838380828437600081840152601f19601f8201169050808301925050505050505091929192905050506107df565b6040518082815260200191505060405180910390f35b34801561044557600080fd5b506104726004803603602081101561045c57600080fd5b81019080803590602001909291905050506108e9565b60405180858152602001806020018060200180602001848103845287818151815260200191508051906020019080838360005b838110156104c05780820151818401526020810190506104a5565b50505050905090810190601f1680156104ed5780820380516001836020036101000a031916815260200191505b50848103835286818151815260200191508051906020019080838360005b8381101561052657808201518184015260208101905061050b565b50505050905090810190601f1680156105535780820380516001836020036101000a031916815260200191505b50848103825285818151815260200191508051906020019080838360005b8381101561058c578082015181840152602081019050610571565b50505050905090810190601f1680156105b95780820380516001836020036101000a031916815260200191505b5097505050505050505060405180910390f35b60008080549050905090565b6000818154811015156105e757fe5b9060005260206000209060040201600091509050806000015490806001018054600181600116156101000203166002900480601f0160208091040260200160405190810160405280929190818152602001828054600181600116156101000203166002900480156106995780601f1061066e57610100808354040283529160200191610699565b820191906000526020600020905b81548152906001019060200180831161067c57829003601f168201915b505050505090806002018054600181600116156101000203166002900480601f0160208091040260200160405190810160405280929190818152602001828054600181600116156101000203166002900480156107375780601f1061070c57610100808354040283529160200191610737565b820191906000526020600020905b81548152906001019060200180831161071a57829003601f168201915b505050505090806003018054600181600116156101000203166002900480601f0160208091040260200160405190810160405280929190818152602001828054600181600116156101000203166002900480156107d55780601f106107aa576101008083540402835291602001916107d5565b820191906000526020600020905b8154815290600101906020018083116107b857829003601f168201915b5050505050905084565b60008080548091906001016107f49190610b54565b5084600060016000805490500381548110151561080d57fe5b90600052602060002090600402016000018190555083600060016000805490500381548110151561083a57fe5b9060005260206000209060040201600101908051906020019061085e929190610b86565b5082600060016000805490500381548110151561087757fe5b9060005260206000209060040201600201908051906020019061089b929190610b86565b508160006001600080549050038154811015156108b457fe5b906000526020600020906004020160030190805190602001906108d8929190610b86565b506000805490509050949350505050565b600060608060606000858154811015156108ff57fe5b90600052602060002090600402016000015460008681548110151561092057fe5b906000526020600020906004020160010160008781548110151561094057fe5b906000526020600020906004020160020160008881548110151561096057fe5b9060005260206000209060040201600301828054600181600116156101000203166002900480601f016020809104026020016040519081016040528092919081815260200182805460018160011615610100020316600290048015610a065780601f106109db57610100808354040283529160200191610a06565b820191906000526020600020905b8154815290600101906020018083116109e957829003601f168201915b50505050509250818054600181600116156101000203166002900480601f016020809104026020016040519081016040528092919081815260200182805460018160011615610100020316600290048015610aa25780601f10610a7757610100808354040283529160200191610aa2565b820191906000526020600020905b815481529060010190602001808311610a8557829003601f168201915b50505050509150808054600181600116156101000203166002900480601f016020809104026020016040519081016040528092919081815260200182805460018160011615610100020316600290048015610b3e5780601f10610b1357610100808354040283529160200191610b3e565b820191906000526020600020905b815481529060010190602001808311610b2157829003601f168201915b5050505050905093509350935093509193509193565b815481835581811115610b8157600402816004028360005260206000209182019101610b809190610c06565b5b505050565b828054600181600116156101000203166002900490600052602060002090601f016020900481019282601f10610bc757805160ff1916838001178555610bf5565b82800160010185558215610bf5579182015b82811115610bf4578251825591602001919060010190610bd9565b5b509050610c029190610c5d565b5090565b610c5a91905b80821115610c5657600080820160009055600182016000610c2d9190610c82565b600282016000610c3d9190610c82565b600382016000610c4d9190610c82565b50600401610c0c565b5090565b90565b610c7f91905b80821115610c7b576000816000905550600101610c63565b5090565b90565b50805460018160011615610100020316600290046000825580601f10610ca85750610cc7565b601f016020900490600052602060002090810190610cc69190610c5d565b5b5056fea165627a7a723058200ce5edc56876d5df5dc3df09b8ec473e92893c3a50f83b87d8ffd780a558c47b0029",
  "source": "pragma solidity ^0.5.0;\n\ncontract SimpleStorage {  \n  struct PatientDetails {\n        uint prod_id;\n        string prod_status;\n        string authority;        \n        string timestamp;\n    }\n    \n    PatientDetails[] public patient;    \n\n    function addReport (uint _prod_id,string memory _prod_status, string memory _authority, string memory _timestamp) public returns(uint) {\n        patient.length++;\n        patient[patient.length-1].prod_id = _prod_id;\n        patient[patient.length-1].prod_status = _prod_status;\n        patient[patient.length-1].authority = _authority;\n        patient[patient.length-1].timestamp = _timestamp;\n        return patient.length;        \n    }\n    \n    function getPatCount() public view returns(uint) {\n        return patient.length;\n    }\n    \n    function getProd(uint index) public view returns (uint, string memory, string memory, string memory)\n    {\n        return (patient[index].prod_id, patient[index].prod_status, patient[index].authority, patient[index].timestamp);\n    }\n\n}\n",
  "sourcePath": "D:/Blockchain/milkBasket/contracts/SimpleStorage.sol",
  "compiler": {
    "name": "solc",
    "version": "0.5.0+commit.1d4f565a.Emscripten.clang"
  },
  "schemaVersion": "3.0.0",
  "updatedAt": "2019-08-04T04:07:02.887Z",
  "devdoc": {
    "methods": {}
  },
  "userdoc": {
    "methods": {}
  }
}